:100000000C9423120C9454120C9454120C94541209
:100010000C9454120C9454120C9454120C945412C8
:100020000C9454120C9454120C9454120C945412B8
:100030000C9454120C9454120C9454120C945412A8
:100040000C9454120C94CA2D0C9454120C94541207
:100050000C9454120C9454120C94752A0C9424A9E8
:100060000C9454120C940A8B0C9454120C94541249
:100070000C9454120C9454120C9454120C94541268
:100080000C9454120C9454120C9454120C94541258
:100090000C9454120C9454120C9454120C94541248
:1000A0000C9454120C9454120C9454120C94541238
:1000B0000C9454120C9454120C9454120C94541228
:1000C0000C9454120C9454120C9454120C94541218
:1000D0000C9454120C9454120C9454120C94541208
:1000E0000C945412084AD73B3BCE016E84BCBFFD32
:1000F000C12F3D6C74319ABD56833DDA3D00C77FF8
:1001000011BED9E4BB4C3E916BAAAABE0000008090
:100110003F05A84CCDB2D44EB93836A9020C50B91F
:10012000918688083CA6AAAA2ABE000000803F004B
:100130004E414E494E495459494E46CDCCCC3D0ACC
:10014000D7233C17B7D13877CC2B329595E6241FAF
:10015000B14F0A000020410000C84200401C462068
:10016000BCBE4CCA1B0E5AAEC59D74434F4D4D5577
:100170004E49434154494F4E0044525952554E0046
:100180004552524F525300494E464F004543484F47
:1001900000656E7175657565696E672022004B4953
:1001A0004C4C45442E200053544F505045442E2073
:1001B000005072696E7465722073746F707065643C
:1001C0002064756520746F206572726F72732E20C3
:1001D00046697820746865206572726F7220616E5E
:1001E0006420757365204D39393920746F2072652C
:1001F00073746172742E202854656D706572617419
:100200007572652069732072657365742E2053655D
:1002100074206974206166746572207265737461FC
:100220007274696E67290A004E6F20436865636BBC
:1002300073756D2077697468206C696E65206E75C2
:100240006D6265722C204C617374204C696E653A46
:1002500020004E6F20436865636B73756D2077696E
:100260007468206C696E65206E756D6265722C20F5
:100270004C617374204C696E653A20006368656355
:100280006B73756D206D69736D617463682C204CA0
:10029000617374204C696E653A20004C696E65206C
:1002A0004E756D626572206973206E6F74204C61AB
:1002B0007374204C696E65204E756D6265722B31CA
:1002C0002C204C617374204C696E653A20004D31CE
:1002D0003130004D33310053442072656164206534
:1002E00072726F720A00446F6E65207072696E746C
:1002F000696E672066696C650A0020496E76616CDC
:10030000696420657874727564657220000000006D
:1003100000000000000000000000005243000082C6
:100320004300003943486F6D696E67206661696CF0
:1003300065640050726F7465637465642050696E03
:100340000A0020573A004520436F6F6C696E672E94
:100350002E2E00452048656174696E672E2E2E0092
:10036000205A3A0020593A0020436F756E74205885
:100370003A0020453A00205A3A0020593A00583AAB
:10038000003A004361703A0023646566696E652037
:1003900044454641554C545F4B64200023646566D8
:1003A000696E652044454641554C545F4B692000B9
:1003B00023646566696E652044454641554C545F2B
:1003C0004B702000504944204175746F74756E6500
:1003D0002066696E697368656421205075742074A5
:1003E0006865206C617374204B702C204B69206110
:1003F0006E64204B6420636F6E7374616E7473203F
:1004000066726F6D2062656C6F7720696E746F2005
:10041000436F6E66696775726174696F6E2E680AE4
:1004200000504944204175746F74756E6520666193
:10043000696C6564212074696D656F75740A004587
:100440003120544845524D414C2052554E41574160
:100450005900546865726D616C2052756E617761E8
:10046000790045312048656174696E67206661696D
:100470006C65640048656174696E67206661696CCB
:10048000656400504944204175746F74756E652031
:100490006661696C6564212054656D706572617474
:1004A00075726520746F6F20686967680A00204B59
:1004B000643A2000204B693A2000204B703A20001B
:1004C0000A20436C617373696320504944200A0019
:1004D0002054753A2000204B753A2000206D617839
:1004E0003A2000206D696E3A200020643A200020F6
:1004F000626961733A2000504944204175746F74F9
:10050000756E652073746172740A0050494420410D
:1005100075746F74756E65206661696C6564212001
:1005200054656D706572617475726520746F6F20AB
:10053000686967680A00504944204175746F747592
:100540006E65206661696C65642120426164206586
:1005500078747275646572206E756D6265720A00DA
:10056000486F6D6520257325732573206669727346
:1005700074002066697273740A005A0059005800AA
:10058000486F6D6520004F666673657473206170F7
:10059000706C696564004572723A20546F6F206612
:1005A00061722100546F6F206661722066726F6DF8
:1005B000207265666572656E636520706F696E7422
:1005C0000A0047322F4733206261642070617261F4
:1005D0006D65746572730A00536C6565702E2E2EFE
:1005E00000436C69636B20746F20726573756D6571
:1005F0002E2E2E004E6F206D6F76652E00456E6498
:100600002066696C65206C6973740A0042656769CD
:100610006E2066696C65206C6973740A00286E6FC1
:100620002066696C65290043757272656E74206678
:10063000696C653A20005344207072696E74696E6B
:1006400067206279746520004E6F742053442070D7
:1006500072696E74696E670A0044656C6574696FCF
:100660006E206661696C65642C2046696C653A2071
:100670000046696C652064656C657465643A0025A4
:1006800069730025696D2025697300256968202537
:10069000696D202569730025696420256968202516
:1006A000696D2025697300256979202569642025F5
:1006B00069682025696D20256973005072696E7420
:1006C0002074696D653A20006F6666008C018701B1
:1006D000800179016B0144454255473A004B494C32
:1006E0004C45442E20004D3131332053006F6B00B8
:1006F00020573A0042656420636F6F6C696E672E05
:100700002E2E004265642068656174696E672E2E26
:100710002E00486963746F70206933204F66662E1F
:10072000002C20002C2000544845524D414C5F5075
:10073000524F54454354494F4E004155544F524532
:10074000504F52545F53445F5354415455530045E6
:100750004D455247454E43595F5041525345520013
:10076000434153455F4C494748545F4252494748CB
:10077000544E45535300544F47474C455F4C4947EF
:1007800048545300534F4654574152455F504F57BA
:100790004552004255494C445F50455243454E54E2
:1007A000004C4556454C494E475F44415441005A20
:1007B0005F50524F4245004155544F4C4556454CB1
:1007C000005052494E545F4A4F420050524F4752D8
:1007D000455353004155544F5245504F52545F5466
:1007E000454D5000564F4C554D45545249430045D8
:1007F0004550524F4D0053455249414C5F584F4E62
:100800005F584F4646004649524D574152455F4E4C
:10081000414D453A4D61726C696E20312E312E3951
:1008200020284769746875622920534F5552434503
:100830005F434F44455F55524C3A68747470733A45
:100840002F2F6769746875622E636F6D2F4D61720B
:100850006C696E4669726D776172652F4D61726C5D
:10086000696E2050524F544F434F4C5F5645525380
:10087000494F4E3A312E30204D414348494E455F55
:10088000545950453A486963746F70206933204564
:10089000585452554445525F434F554E543A3120B7
:1008A000555549443A63656465326132662D343189
:1008B00061322D343734382D396231322D6335357C
:1008C0006336326633363766660A002F2F20004DB6
:1008D00031343520533C696E6465783E206F757401
:1008E000206F662072616E67652028302D31290ADD
:1008F00000205400205200416363656C657261748E
:10090000696F6E3A205000205A002059005800208C
:10091000204D61783A2000205A00205900580020CC
:10092000204D696E3A20004F6E20004F66660053DE
:100930006F667420656E6473746F70733A20002064
:10094000466C6F773A2000000136372603FFFFFF21
:10095000353C3D380EFFFFFF312E303E12FFFFFFCA
:10096000FF28FF0C0809FFFFFF1A1C18FFFF2A08C9
:10097000440AFF43496E76616C696420657874723D
:10098000756465720A0020643A0020693A0020709C
:100990003A0043290A0061626C656420286D696E23
:1009A0002074656D702000436F6C642065787472EC
:1009B000756465732061726520004E6F20636173FA
:1009C00065206C696768740A00454550524F4D2098
:1009D0004F4B0A00416374697665204578747275DF
:1009E0006465723A2000496E76616C6964206578AE
:1009F0007472756465720A00526573656E643A209C
:100A0000006F6B0020746F6F206C6F6E67206578CD
:100A100074727573696F6E2070726576656E746539
:100A2000640A0020636F6C64206578747275736962
:100A30006F6E2070726576656E7465640A0062750B
:100A400073793A2070617573656420666F722069EE
:100A50006E7075740A00627573793A2070617573EF
:100A6000656420666F7220757365720A0062757323
:100A7000793A2070726F63657373696E670A004B11
:100A8000494C4C45442E20004B494C4C2063617529
:100A9000736564206279204B494C4C2062757474F4
:100AA0006F6E2F70696E0A004B494C4C45442E20E6
:100AB000004B494C4C20636175736564206279205A
:100AC000746F6F206D75636820696E6163746976F9
:100AD000652074696D65202D2063757272656E7472
:100AE00020636F6D6D616E643A2000506C656173B8
:100AF00065207265736574005052494E544552200A
:100B000048414C544544005072696E7465722068C7
:100B1000616C7465642E206B696C6C28292063619C
:100B20006C6C6564210A00000000000000000000F9
:100B300000000000004842000048420000804000E1
:100B40000000005761726E696E673A20486F6D69E8
:100B50006E672042756D702044697669736F7220EC
:100B60003C20310A000202040000A0400000A04026
:100B7000000000400000524300008243000039435F
:100B8000FFFFFF7C3C3E5E2B3D3F2F5B5D3B2C2AF5
:100B9000225C004572726F722077726974696E67A9
:100BA00020746F20454550524F4D210A0045455055
:100BB000524F4D206461746173697A652065727269
:100BC0006F722E0A00290A002062797465733B2037
:100BD000637263200053657474696E677320537485
:100BE0006F726564202800290A0020627974657399
:100BF0003B2063726320002073746F7265642073FE
:100C0000657474696E677320726574726965766560
:100C100064202800202863616C63756C61746564CE
:100C200029210A0020213D2000454550524F4D20EA
:100C3000435243206D69736D61746368202D2028D1
:100C400073746F7265642920002053697A653A20B5
:100C500000496E6465783A2000204D61726C696EBF
:100C60003D563536290A0028454550524F4D3D0026
:100C7000454550524F4D2076657273696F6E206DF9
:100C800069736D61746368200048617264636F64A6
:100C900065642044656661756C742053657474697D
:100CA0006E6773204C6F616465640A00F401000094
:100CB000F401000064000000881300000000964367
:100CC000000096430000A0400000C8410000A04280
:100CD0000000A0420000C8449AF9254420286D6D08
:100CE000290020440020490020204D33303120507D
:100CF000005049442073657474696E67733A0A0042
:100D000020460020420020480020204D313435206C
:100D100053004D6174657269616C2068656174751A
:100D20007020706172616D65746572733A0A00209B
:100D30005A0020590020204D323036205800486F8C
:100D40006D65206F66667365743A0A002045002061
:100D50005A00205900205800205400205300202021
:100D60004D32303520510020453C6D61785F655F24
:100D70006A65726B3E0020583C6D61785F785F6AEF
:100D800065726B3E20593C6D61785F795F6A657270
:100D90006B3E205A3C6D61785F7A5F6A65726B3E8C
:100DA00000416476616E6365643A20513C6D696E02
:100DB0005F7365676D656E745F74696D655F75738C
:100DC0003E20533C6D696E5F666565647261746553
:100DD0003E20543C6D696E5F74726176656C5F662F
:100DE000656564726174653E0020540020520020E5
:100DF000204D323034205000416363656C65726170
:100E000074696F6E2028756E6974732F7332293A76
:100E100020503C7072696E745F616363656C3E2044
:100E2000523C726574726163745F616363656C3EAA
:100E300020543C74726176656C5F616363656C3EDF
:100E40000A00204500205A0020590020204D323051
:100E5000312058004D6178696D756D20416363657F
:100E60006C65726174696F6E2028756E6974732F7A
:100E70007332293A0A00204500205A0020590020E8
:100E8000204D3230332058004D6178696D756D20EA
:100E90006665656472617465732028756E69747324
:100EA0002F73293A0A00204500205A0020590020BB
:100EB000204D39322058005374657073207065726C
:100EC00020756E69743A0A0020204D32303020447B
:100ED000300A0020204D3230302044002044697315
:100EE00061626C65640A0046696C616D656E7420B0
:100EF00073657474696E67733A0020204D3134391C
:100F00002043203B20556E69747320696E20436531
:100F10006C736975730A002020473231202020202D
:100F20003B00545249474745524544006F70656E37
:100F3000003A20007A5F6D696E00795F6D696E001E
:100F4000785F6D696E005265706F7274696E6720AC
:100F5000656E6473746F70207374617475730A00C6
:100F600024F4D43050C38E20C2A24017828B70115B
:100F7000127A910D816CD90AA861E108C7586607F9
:100F8000615143061E4B5D05C145A7041A4111047A
:100F9000093D9803713931034036DB026533910214
:100FA000D4305402802E1D02632CEE01752AC50137
:100FB000B028A001102781018F2564012B244B014B
:100FC000E0223401AC211F018D200D01801FFC00A7
:100FD000841EED00971DDF00B81CD200E61BC60082
:100FE000201BBC00641AB200B219A8000A19A000A4
:100FF0006A189900D117910040178B00B51684002C
:1010000031167E00B31579003A157300C7146F00CE
:1010100058146A00EE1366008813630025135E00FF
:10102000C7125B006C12570015125400C111510019
:1010300070114F0021114B00D61049008D10470050
:101040004610440002104200C00F4000800F3E00D6
:10105000420F3C00060F3B00CB0E3800930E3700CA
:101060005C0E3500270E3400F30D3200C10D310047
:10107000900D3000600D2E00320D2D00050D2C005E
:10108000D90C2B00AE0C2900850C29005C0C270024
:10109000350C27000E0C2600E80B2400C40B24009E
:1010A000A00B23007D0B23005A0B2100390B2100DC
:1010B000180B2000F80A1F00D90A1E00BB0A1E00E8
:1010C0009D0A1D00800A1D00630A1C00470A1B00C0
:1010D0002C0A1B00110A1A00F7091A00DD09190071
:1010E000C4091900AB091900920917007B091800FF
:1010F000630917004C09160036091600200916006E
:101100000A091500F5081500E0081400CC081400C1
:10111000B8081400A4081400900813007D081200F9
:101120006B0813005808120046081200340811001A
:10113000230811001208110001081100F007100027
:10114000E0071000D0071000C0071000B0070F0024
:10115000A107100091070E0083070F0074070F000E
:1011600065070E0057070E0049070E003B070D00EC
:101170002E070E0020070D0013070D0006070D00B7
:10118000F9060C00ED060D00E0060C00D4060C007C
:10119000C8060C00BC060C00B0060C00A4060B0030
:1011A00099060C008D060B0082060B0077060B00DB
:1011B0006C060B0061060A0057060B004C060A007D
:1011C00042060A0038060A002E060A0024060A0013
:1011D0001A060A001006090007060A00FD050900A4
:1011E000F4050900EB050900E2050900D90509002D
:1011F000D0050900C7050900BE050900B5050800AE
:10120000AD050800A50509009C0508009405080027
:101210008C050800840508007C050800740508009A
:101220006C050700650508005D0507005605080008
:101230004E05070047050700400508003805070070
:10124000310507002A050700230507001C050600D5
:10125000160507000F050700080506000205070030
:10126000FB040600F5040700EE040600E80406008F
:10127000E2040700DB040600D5040600CF040600E4
:10128000C9040600C3040600BD040600B704060036
:10129000B1040500AC040600A6040600A004050085
:1012A0009B04060095040500900406008A040500CE
:1012B00085040500800406007A0405007504050015
:1012C000700405006B040500660405006104050058
:1012D0005C04050057040500520405004D04050098
:1012E00048040500430405003E0404003A040500D8
:1012F00035040500300404002C0405002704040014
:10130000230405001E0404001A040400160405004A
:10131000110404000D040400090405000404040081
:1013200000040400FC030400F8030400F4030400B8
:10133000F0030400EC030400E8030400E4030400E9
:10134000E0030400DC030400D8030400D403040019
:10135000D0030400CC030400C8030300C50303004A
:1013600024F404D9201BC40C5C0E9804C4095F0249
:1013700065077101F405F900FB04B3004804870018
:10138000C10369005803550003034500BE023A003B
:101390008402310053022A002902250004022000A1
:1013A000E4011C00C8011900AF01170098011400E6
:1013B00084011300710110006101100051010E0041
:1013C00043010D0036010B002B010B0020010B0027
:1013D000150109000C01090003010800FB000800C9
:1013E000F3000800EB000700E4000600DE00060042
:1013F000D8000600D2000600CC000500C70005009A
:10140000C2000500BD000400B9000400B5000400DE
:10141000B1000400AD000400A9000400A500030011
:10142000A20003009F0004009B000300980003003B
:101430009500020093000300900003008D0002005D
:101440008B00030088000200860002008400030075
:10145000810002007F0002007D0002007B0002008C
:10146000790002007700010076000200740002009B
:1014700072000100710002006F0002006D000100A7
:101480006C0002006A0001006900020067000100B0
:1014900066000100650001006400020062000100B6
:1014A00061000100600001005F0002005D000100BA
:1014B0005C0001005B0001005A00010059000100BE
:1014C00058000100570001005600010055000100BE
:1014D00054000100530000005300010052000100BD
:1014E00051000100500001004F0001004E000000BB
:1014F0004E0001004D0001004C0001004B000000B7
:101500004B0001004A0001004900010048000000B2
:1015100048000100470001004600000046000100AD
:1015200045000000450001004400010043000000A8
:1015300043000100420000004200010041000000A1
:1015400041000100400001003F0000003F00010099
:101550003E0000003E0001003D0000003D00010093
:101560003C0000003C0000003C0001003B0000008B
:101570003B0001003A0000003A0001003900000081
:101580003900010038000000380000003800010078
:101590003700000037000100360000003600000070
:1015A0003600010035000000350000003500010064
:1015B000340000003400000034000100330000005B
:1015C0003300000033000100320000003200000050
:1015D0003200010031000000310000003100010044
:1015E0003000000030000000300001002F0000003B
:1015F0002F0000002F0000002F0001002E0000002F
:101600002E0000002E0001002D0000002D00000023
:101610002D0000002D0001002C0000002C00000017
:101620002C0000002C0001002B0000002B0000000B
:101630002B0000002B0001002A0000002A000000FF
:101640002A0000002A0001002900000029000000F3
:1016500029000000290000002900010028000000E6
:1016600028000000280000002800000028000100D9
:1016700027000000270000002700000027000000CE
:1016800027000100260000002600000026000000C0
:1016900026000000260001002500000025000000B3
:1016A00025000000250000002500000025000100A5
:1016B000240000002400000024000000240000009A
:1016C000240001002300000023000000230000008C
:1016D000230000002300000023000000230001007D
:1016E0002200000022000000220000002200000072
:1016F0002200000022000100210000002100000063
:101700002100000021000000210000002100000055
:101710002100010020000000200000002000000047
:101720002000000020000000200000002000000039
:10173000200001001F0000001F0000001F0000002B
:101740001F0000001F0000001F0000001F0001001C
:101750001E0000001E0000001E0000001E00000011
:10176000043700001E290000511B00005810000023
:1017700010090000CC0400007802000041010000C4
:101780006265640A002C2073797374656D2073742C
:101790006F7070656421204865617465725F4944AB
:1017A0003A20004265642068656174696E6720664E
:1017B00061696C65640048656174696E6720666183
:1017C000696C65640045312048656174696E672005
:1017D0006661696C65640048656174696E6720665E
:1017E00061696C65640070012C0190012701B001F2
:1017F0002201C0011D01F001180110021301300285
:101800000E016002090190020401C002FF00000302
:10181000FA004003F5008003F000D003EB00200441
:10182000E6007004E100E004DC004005D700C005DC
:10183000D2004006CD00D006C8008007C3003008A3
:10184000BE00F008B900C009B400B00AAF00B00B88
:10185000AA00D00CA500000EA000500F9B00C010E5
:1018600096005012910000148C00C0158700B0172C
:101870008200B0197D00D01B7800001E730040204C
:101880006E0090226900F024640040275F009029D8
:101890005A00E02B5500102E500020304B00103223
:1018A0004600E033410090353C0010373700703877
:1018B0003200A0392D00B03A2800A03B2300603C44
:1018C0001E00103D1900903D1400103E0F00703EA8
:1018D0000A00C03E0500003F0000403FFBFF803F84
:1018E000F6FFC03FF1FF453120544845524D414C71
:1018F0002052554E415741590042454420544845D5
:10190000524D414C2052554E415741590054686543
:10191000726D616C2052756E61776179004531207E
:101920004572723A204D415854454D5000457272EF
:101930003A204D415854454D5020424544004D41B8
:101940005854454D5020747269676765726564002C
:101950004531204572723A204D494E54454D500054
:101960004572723A204D494E54454D5020424544EF
:10197000004D494E54454D50207472696767657239
:101980006564004D383420582059205A20450020E5
:101990002F002042403A0020403A0025753A253079
:1019A000327500253032753A25303275002D2D2DD7
:1019B0000053440020202020202000202020200050
:1019C000486963746F702069332052656164792EB1
:1019D000005072696E74696E672E2E2E0050726907
:1019E0006E7420706175736564005072696E742046
:1019F00061626F72746564005072696E7420667201
:101A00006F6D2053440053746F70207072696E7450
:101A100000526573756D65207072696E74004E6F4B
:101A200020534420636172640050617573652070B7
:101A300072696E7400436F6E74726F6C00507265E1
:101A4000706172650054756E6500496E666F207333
:101A5000637265656E00466C6F7700466C6F770049
:101A600046616E2073706565640046616E20737018
:101A70006565640042656400426564004E6F7A7A71
:101A80006C65004E6F7A7A6C650053706565640012
:101A90005370656564004D61696E005072656865DC
:101AA000617420504C4120456E6400507265686539
:101AB000617420504C412042656400507265686535
:101AC000617420504C410050726570617265005025
:101AD0007265686561742041425320456E64005010
:101AE000726568656174204142532042656400500C
:101AF000726568656174204142530050726570617F
:101B00007265004D3432380050726568656174202A
:101B1000504C4100436F6F6C646F776E005072657C
:101B200068656174204142530044697361626C6569
:101B3000207374657070657273004D38340053659E
:101B40007420686F6D65206F6666736574730041FD
:101B500075746F20686F6D6500473238004D6F7681
:101B6000652061786973004D61696E004D6F76651F
:101B70002058004D6F76652059004D6F7665205ACC
:101B8000004578747275646572004D6F766520301B
:101B90002E316D6D004D6F766520316D6D004D6F8E
:101BA00076652031306D6D004D6F76652061786906
:101BB00073004578747275646572004D6F766520A8
:101BC0005A004D6F76652059004D6F76652058009C
:101BD0004578747275646572004D6F7665205A00A1
:101BE0004D6F76652059004D6F7665205800507214
:101BF000657061726500496E697469616C697A65C6
:101C000020454550524F4D00436F6E74726F6C000B
:101C1000526573746F7265206661696C7361666585
:101C2000004C6F61642073657474696E677300495A
:101C30006E697469616C697A6520454550524F4DF3
:101C40000053746F72652073657474696E677300F6
:101C500046696C616D656E74004D6F74696F6E00DE
:101C600054656D7065726174757265004D61696E61
:101C700000507265686561742041425320636F6E45
:101C800066005072656865617420504C4120636F36
:101C90006E66005049442D44005049442D44005084
:101CA00049442D49005049442D49005049442D5084
:101CB000005049442D5000200220466163740020EA
:101CC000022046616374002002204D6178002002EA
:101CD000204D6178002002204D696E002002204DC9
:101CE000696E004F6666004F6E20004175746F7418
:101CF000656D700046616E207370656564004661B5
:101D00006E2073706565640042656400426564001E
:101D10004E6F7A7A6C65004E6F7A7A6C6500436F0D
:101D20006E74726F6C0053746F7265207365747497
:101D3000696E67730042656400426564004E6F7AA5
:101D40007A6C65004E6F7A7A6C650046616E20731E
:101D5000706565640046616E20737065656400544B
:101D6000656D706572617475726500565472617646
:101D7000206D696E005654726176206D696E005652
:101D80006D696E00566D696E00566D617820450074
:101D9000566D6178204500566D6178205A00566D69
:101DA0006178205A00566D6178205900566D61782F
:101DB000205900566D6178205800566D6178205882
:101DC000004D6F74696F6E00416D61782045004170
:101DD0006D6178204500416D6178205A00416D6148
:101DE00078205A00416D6178205900416D6178205A
:101DF0005900416D6178205800416D61782058008C
:101E0000412D74726176656C00412D747261766546
:101E10006C00412D7265747261637400412D7265AE
:101E2000747261637400416363656C004163636550
:101E30006C004D6F74696F6E0056652D6A65726B2C
:101E40000056652D6A65726B00567A2D6A65726B55
:101E500000567A2D6A65726B0056792D6A65726B31
:101E60000056792D6A65726B0056782D6A65726B23
:101E70000056782D6A65726B004D6F74696F6E0045
:101E80004573746570732F6D6D0045737465707361
:101E90002F6D6D005A73746570732F6D6D005A73DA
:101EA000746570732F6D6D005973746570732F6D49
:101EB0006D005973746570732F6D6D005873746580
:101EC00070732F6D6D005873746570732F6D6D0096
:101ED0004D6F74696F6E0053746570732F6D6D0074
:101EE0004A65726B00416363656C65726174696F0A
:101EF0006E0056656C6F6369747900436F6E74721F
:101F00006F6C0046696C2E204469612E0046696C36
:101F10002E204469612E004F6666004F6E200045FA
:101F200020696E206D6D3300436F6E74726F6C00AC
:101F300043616E6E6F7420656E7465722073756296
:101F40006469723A2000052E2E004D61696E0043CF
:101F50006172642072656D6F7665640043617264BE
:101F600020696E73657274656400001C1F11111F77
:101F700000000006191803130C00040E1F041C00B7
:101F80000000000E1315110E00001C101817050696
:101F90000500040A0A0A0A11110E0C12120C0000A4
:101FA0000000001F1511151F000000002100240073
:101FB00027002A002D003000330001010000040139
:101FC00007010A0100002200250028002B002E0036
:101FD0003100340002010000050108010B0100007E
:101FE00020002300260029002C002F0032000001D1
:101FF000000003010601090105050505070508089C
:102000000808020202020A0A080804040404010182
:102010000101010101010303030303030303040797
:1020200007070C0C0C0C0C0C0C0C0202020206062E
:102030000606060606060B0B0B0B0B0B0B0B010221
:1020400010202008081020401020408002010201CA
:102050000804020101020408102040808040201082
:1020600008040201800402018040201008040201DB
:102070000804020101020408102040800102040843
:102080001020408000000A0B02090C0D0E08070307
:10209000040100000000000000000000000000003B
:1020A0000000000000000000000000000000000030
:1020B00012111000000000000000000000000000ED
:1020C000000000000000000000000000000001020D
:1020D00004040000001C1C0C0404040201000000A5
:1020E000000004081000000000002D2D2D2D2D2DC6
:1020F000007C4D61726C696E7C002D2D2D2D2D2D77
:1021000000687474703A2F2F6D61726C696E667717
:102110002E6F726700687474703A2F2F6D61726C45
:10212000696E66772E6F72670020312E312E39006E
:102130002020506C616E6E657242756666657242F3
:10214000797465733A20002046726565204D656D8F
:102150006F72793A2000436F6D70696C65643A2044
:102160004A756C20203220323032320A00207C2026
:10217000417574686F723A2028506564726F2052FE
:1021800069636F2C20372E323220636F6E66696769
:10219000290A00323031382D30382D303100204CB2
:1021A00061737420557064617465643A2000312E47
:1021B000312E390A004D61726C696E0020536F66D2
:1021C00074776172652052657365740A00205761E7
:1021D000746368646F672052657365740A002042F7
:1021E000726F776E206F75742052657365740A0084
:1021F0002045787465726E616C2052657365740A4F
:1022000000506F77657255700A0073746172740ABA
:10221000006175746F25692E67006572726F722098
:1022200077726974696E6720746F2066696C650ADD
:1022300000456E6473746F707320256320256320DE
:10224000256320256300205A3A0020593A0020587F
:102250003A00656E6473746F7073206869743A2015
:1022600000446F6E6520736176696E672066696CE5
:10227000652E0A004D3239004D3234004D32332084
:10228000257300556E6B6E6F776E20636F6D6D6199
:102290006E643A20220020746F6F206C6F6E67208E
:1022A000657874727573696F6E2070726576656E8D
:1022B0007465640A0020636F6C64206578747275BD
:1022C00073696F6E2070726576656E7465640A005E
:1022D00053442063617264206F6B0A006F70656EF7
:1022E000526F6F74206661696C65640A00766F6C6A
:1022F000756D652E696E6974206661696C65640A26
:1023000000534420696E6974206661696C0A005745
:10231000726974696E6720746F2066696C653A2013
:10232000006F70656E206661696C65642C2046697B
:102330006C653A20006F70656E206661696C65643B
:102340002C2046696C653A200046696C65207365EF
:102350006C65637465640A002053697A653A2000ED
:1023600046696C65206F70656E65643A2000206672
:10237000696C653A2000646F696E67006672657308
:1023800068004E6F772000454E4420535542524F0F
:102390005554494E450A002220706F730022207068
:1023A0006172656E743A2200535542524F5554493A
:1023B0004E452043414C4C207461726765743A224B
:1023C000004B494C4C45442E2000747279696E676D
:1023D00020746F2063616C6C207375622D67636F6E
:1023E00064652066696C6573207769746820746F12
:1023F0006F206D616E79206C6576656C732E204D53
:102400004158206C6576656C2069733A004572729C
:102410006F723A006F70656E206661696C65642C3E
:102420002046696C653A200043616E6E6F74206FC0
:1024300070656E2073756264697220006563686FF1
:102440003A00A3C16CC111241FBECFEFD1E2DEBFA1
:10245000CDBF00E00CBF13E0A0E0B2E0EAECF6EA8A
:1024600001E00BBF02C007900D92AE31B107D9F762
:1024700022E1AEE1B3E001C01D92AE31B207E1F757
:1024800012E1C2E2D2E100E006C021970109802FEB
:10249000FE010E94C7D2C132D10780E00807A9F728
:1024A0000E946EC20C9454D30C9400002CEA35ECBC
:1024B00047E25EE360918405709185058091860511
:1024C000909187050E949CD0609388057093890540
:1024D00080938A0590938B0508952CEA35EC47E2AA
:1024E0005EE360918C0570918D0580918E059091D1
:1024F0008F050E940FCC6093900570939105809397
:1025000092059093930508956091160270911702B9
:10251000072E000C880B990B0E94B0CB2AE037EDF8
:1025200043E25CE30E940FCC20915E0530915F0591
:1025300040916005509161050E940FCC60933E026E
:1025400070933F02809340029093410208959091CE
:102550006F00292F227091FF05C090916F009D7F21
:1025600090936F0034E0839FC0011124FC01E0537D
:10257000FB4F40815181628173818C539B4FFC01E1
:10258000408351836283738381E08093C304222359
:1025900029F080916F00826080936F0008954F92C0
:1025A0005F926F927F928F929F92AF92BF92EF92C3
:1025B000FF920F931F93CF93DF93C1EAD5E08BEC8B
:1025C000E82E8CE0F82E07EA17E0412C512C32015E
:1025D00043946991799189919991F70181909190B2
:1025E000A190B1907F010E94AECBA50194010E9401
:1025F0000FCC0E9409D1F80161937193819391935B
:102600008F01461657066806790610F42B013C0127
:10261000F5E0C13BDF07E9F66FEF7FEFCB01A301E8
:1026200092010E9484CF2093B7073093B80740935C
:10263000B9075093BA07DF91CF911F910F91FF9087
:10264000EF90BF90AF909F908F907F906F905F9032
:102650004F900895A4CFCF93DF9390916F00292FCF
:10266000227091FF05C090916F009D7F90936F0045
:1026700094E0899FA0011124FA01E053FB4F60818F
:10268000718182819381222329F020916F00226041
:1026900020936F00EA01C152D84F0E94B0CB28812D
:1026A00039814A815B810E940FCCDF91CF910895DF
:1026B000CF92DF92EF92FF928091B505882309F4C3
:1026C00057C0C090B105D090B205E090B305F0902E
:1026D000B40520E030E0A901C701B6010E94AACBF1
:1026E000882309F445C020E030E040E05FE3C70103
:1026F000B6010E940FCC9B01AC010E940FCC2BEDC8
:102700003FE049E450E40E940FCC9B01AC0160E043
:1027100070E080E89FE30E949CD06B017C01C09236
:102720005E05D0925F05E0926005F09261056091D0
:10273000160270911702072E000C880B990B0E944D
:10274000B0CB2AE037ED43E25CE30E940FCCA70157
:1027500096010E940FCC60933E0270933F028093DB
:10276000400290934102FF90EF90DF90CF90089548
:10277000C12CD12C80E8E82E8FE3F82ED0CF8091A9
:102780006F00982F927081FF05C080916F008D7F40
:1027900080936F001092D7071092D8071092D90734
:1027A0001092DA07992329F080916F00826080935C
:1027B0006F0008950F931F9380912B0F90912C0F12
:1027C000891B8F7009F449C09091280F992361F0FB
:1027D000833040F48FEF890F29F08093280F90E029
:1027E00080E038C01092280F80912C0F2DE4829F3A
:1027F000C00111248650984FFC01208120FDEFCFAD
:102800004091D7075091D8076091D9077091DA07A6
:10281000E75BFF4F0081118122813381401B510B07
:10282000620B730B4093D7075093D8076093D90777
:102830007093DA0720912C0F2F5F2F702093290FB0
:1028400030912C0F20912A0F321304C02091290FB0
:1028500020932A0F1F910F91089591DFC0CFCF933E
:10286000DF938091790465994AC0816080937904EF
:10287000909103018091790491FD43C0826080931F
:102880007904809179044B993EC0846080937904E7
:10289000C091B404C0FF0FC080917A0480FF0BC0C8
:1028A0008091790480FF07C08091ED05816080935D
:1028B000ED0580E04CDEC1FF0FC080917A0481FFFE
:1028C0000BC08091790481FF07C08091ED05826083
:1028D0008093ED0581E03BDEC2FF17C080917A0452
:1028E00082FF13C08091790482FF0FC08091ED05B3
:1028F00084608093ED0582E0DF91CF9128CE8E7FBA
:10290000B5CF8D7FBCCF8B7FC1CFDF91CF910895A5
:10291000CF92DF92EF92FF92CF93DF93EC01C090C2
:102920006E05D0906F05E0907005F0907105A701DD
:102930009601688179818A819B810E94AACB87FF59
:1029400004C0C882D982EA82FB82C0907205D0900E
:102950007305E0907405F0907505A70196016C81F0
:102960007D818E819F810E94AACB87FF04C0CC828B
:10297000DD82EE82FF82C0901A02D0901B02E090AE
:102980001C02F0901D02A7019601688179818A815D
:102990009B810E94E6D1181624F4C882D982EA826B
:1029A000FB82C0901E02D0901F02E0902002F090A7
:1029B0002102A70196016C817D818E819F810E94F9
:1029C000E6D1181624F4CC82DD82EE82FF82C0901C
:1029D0007605D0907705E0907805F0907905A7010D
:1029E0009601688579858A859B850E94AACB87FF99
:1029F00004C0C886D986EA86FB86C0902202D090A1
:102A00002302E0902402F0902502A7019601688538
:102A100079858A859B850E94E6D1181624F4C8869C
:102A2000D986EA86FB86DF91CF91FF90EF90DF9009
:102A3000CF9008955F9A8091CB058E7F8093CB05D0
:102A40008A9A8091CB058D7F8093CB058091080178
:102A500080958170809306018091CB058B7F809358
:102A6000CB05129A0895CF93DF9380E0F4DDC7E39E
:102A7000D4E0688379838A839B8381E0ECDD6C8377
:102A80007D838E839F8382E0E6DD688779878A87EE
:102A90009B87DF91CF9108950F931F93CF93DF937F
:102AA00094E0899FE00111248E010E591A4FFE0116
:102AB000E453FA4FDE01A55ABB4F2D913D914D9144
:102AC0005C9160817181828193810E94C0CFF80105
:102AD0006083718382839383FE01E35FFC4F859162
:102AE0009591A591B491FE01E259FA4F80839183AB
:102AF000A283B383FE01E75EFC4F85919591A5917A
:102B0000B491C65EDD4F88839983AA83BB83DF912E
:102B1000CF911F910F9108959091EC05E92FF0E06E
:102B2000E851FA4F80839F5F943040F49093EC0516
:102B300080916F078F5F80936F0708951092EC0567
:102B4000F7CF2FEB280F2A3108F042C0E22FF0E038
:102B50008091AC039091AD03A091AE03B091AF030F
:102B600004C0B695A795979587952A95D2F780FDCD
:102B700002C081700895EE56FC4FE081EE2329F1EA
:102B80008091950790919607E80FF92FF11D8081AC
:102B900090ED980F9A3030F08E3251F4818180534D
:102BA0008A3098F4F0931F03E0931E0381E00895A8
:102BB0008D3211F08B3249F4818190ED980F9A306B
:102BC00088F38E3211F48281EACFF0E0E0E0EACFC0
:102BD00080E00895B6DF882341F081E020911E0354
:102BE00030911F03232B09F480E00895089590E0AD
:102BF00080E0089580913504909136042FEF3FEFE7
:102C0000981751F0E92FF0E0EB54FC4F208130E0B1
:102C10009F5F9F7790933604C90108950C948DA708
:102C2000CF92DF92EF92FF92CF93C82F0E9481A79D
:102C30006B017C0124EA30E74DE75FE360917A05A0
:102C400070917B0580917C0590917D050E94AACBB7
:102C500087FD18C08AEF90E0A0E0B0E08C0D9D1DCC
:102C6000AE1DBF1D8093B7059093B805A093B9051D
:102C7000B093BA05C0933302CF91FF90EF90DF90ED
:102C8000CF90089580E090E0DC01E8CF0F931F9390
:102C900080915D05813019F50E9481A70091E404BF
:102CA0001091E5042091E6043091E704601B710B5C
:102CB000820B930B28EE33E040E050E00E9484CF7B
:102CC0006091E0047091E1048091E2049091E3044A
:102CD000620F731F841F951F1F910F9108956091BC
:102CE000E8047091E9048091EA049091EB04D6CF56
:102CF00080915D05813079F482E080935D050E94CA
:102D000081A76093E8047093E9048093EA049093A8
:102D1000EB0481E0089580E008950F931F93CF9313
:102D2000DF93EC010E9481A70E811F8128853985E0
:102D3000011511052105310579F52C85222339F17D
:102D4000EA8521502C8721E02E0F2A873D85231309
:102D500001C01A86F0E03196EE0FFF1FEE0FFF1F45
:102D6000EC0FFD1F02851385248535850A831B839F
:102D70002C833D83600F711F811D911D6E837F83A6
:102D8000888799878C819D81892B09F0409ADF91F2
:102D9000CF911F910F910895601B710B820B930BC4
:102DA00097FDF5CF40981E821F8218861986EFCFB7
:102DB000CF93DF9300D01F92CDB7DEB7882349F0C1
:102DC0000E9408B10F900F900F900F90DF91CF915C
:102DD000089588EB91E09C838B8384E190E09A8353
:102DE0008983BE016D5F7F4FCE0101960E94E29301
:102DF000E9CF8F929F92AF92BF92CF92DF92EF92E4
:102E0000FF920F93CF93DF931F92CDB7DEB76C0184
:102E10007B014901809177045B01A40EB51E8823D4
:102E2000A1F0F60180819181480F591F51834083A1
:102E30000F90DF91CF910F91FF90EF90DF90CF90A7
:102E4000BF90AF909F908F900895F60180819181FF
:102E50000E945FCF898390917804992311F0002319
:102E600011F0F7018083BE016F5F7F4FC4010E94A4
:102E70001EA1F60180819181019691838083FFEFED
:102E8000EF1AFF0AEA14FB0401F7D2CFCF92DF92C8
:102E9000EF920F931F93CF93DF9300D01F92CDB784
:102EA000DEB7E090B60519821A821B821C82CE0121
:102EB00001966C0100E012E024EE35E040EE55E0B2
:102EC0006CED75E088ED95E00E9416940F900F90E0
:102ED0000F900F90DF91CF911F910F91EF90DF90A6
:102EE000CF90089580911E0390911F03009731F0B9
:102EF0004AE050E070E060E00C94C6C860E070E02A
:102F0000CB010895EFDF97FD0AC0ECDF6F3F71053D
:102F10008105910509F02CF4E5DF862F089580E006
:102F200008958FEF089580911E0390911F03892BC0
:102F300039F0E8DF91E0811101C090E0892F089518
:102F400091E0FCCF80911E0390911F03009731F018
:102F50004AE050E070E060E00C94F1C960E070E09D
:102F6000CB0108950F931F93CF9380911E039091EF
:102F70001F030097E9F0FC018F01C1912C2F2F7DD9
:102F800081F0C53411F0C536B9F7F801108270E050
:102F900060E00E9471C7F801C083CF911F910F912B
:102FA000089570E060E0CF911F910F910C9471C76C
:102FB00060E070E0CB01F1CF86E4C3DD809394053F
:102FC000882349F0CFDF6093270270932802809313
:102FD000290290932A0283E5B4DD882349F0C2DFF9
:102FE00060932F02709330028093310290933202EB
:102FF00082E4A7DD882349F0B5DF60932B0270934C
:103000002C0280932D0290932E020895CF92DF928E
:10301000EF92FF920F931F93CF93DF9331ECC32E68
:1030200032E0D32E47E6E42E44E0F42E08ED15E01E
:10303000D0E0C0E0F60181916F0183DD882309F4BF
:1030400054C090DFFE01E357FC4F2081211104C0E2
:10305000209191032223C9F1F8012081318142811D
:1030600053810E94C0CFF701608371838283938371
:103070002196F4E0EF0EF11C0C5F1F4FC430D10518
:10308000C9F686E4A7DD8823B9F06CDF20E030E0E4
:10309000A9010E94E6D118167CF464DF20E030E03C
:1030A00040E752E40E949CD06093000270930102BA
:1030B0008093020290930302DF91CF911F910F91B1
:1030C000FF90EF90DF90CF900895C33061F2FE0142
:1030D000EE0FFF1FEE0FFF1FEE59FA4F20813181D7
:1030E000428153810E94BFCFBECFF8018081918180
:1030F000A281B381F70180839183A283B383B8CF88
:1031000080915D058230B1F090915D0F992359F067
:1031100080916E0F811104C081E69FE00C94E992CA
:103120008EE69FE0FBCF813041F080EC99E16FEFBC
:103130000C94E7B18DED99E1FACF81ED99E1F7CFEC
:10314000809152058630D8F496E0899FF0011124D1
:10315000E25DFA4F20913C0230913D0231832083A1
:1031600040918D0750918E0760918F077091900765
:1031700042835383648375838F5F809352050895E0
:1031800020913C0230913D0228173907D9F09093E5
:103190003D0280933C0240938D0750938E076093CD
:1031A0008F07709390078F5E954221F41092BB05B4
:1031B000109252050E9448A582E08093440281E06B
:1031C00080938B07089521E02093BB0560937A05D7
:1031D00070937B0580937C0590937D0540E050E0E3
:1031E000BA0180917E0590917F05CACF60E070E0C2
:1031F00080E291E4E8CF60E070E080E89FE3E3CF15
:103200006DEC7CEC8CEC9DE3DECF40E050E0BA014D
:103210008FEE95E2B5CFE0915205EE2381F0E150BB
:10322000E093520586E0E89FF0011124E25DFA4F39
:10323000428153816481758180819181A1CFE5CFE5
:10324000EF92FF920F93CF93DF93D82F7A01C22F83
:1032500080E00E9437A5D11101C0C0E28C2F0E94EE
:1032600082A5C2E1F7016491662359F0CC2389F06D
:1032700080E19FE00E944FA5C150FFEFEF1AFF0AC7
:10328000F1CFC15030F060E280E19FE00E944FA595
:10329000F8CF802FDF91CF910F91FF90EF900C949A
:1032A00082A52F923F924F925F926F927F928F9260
:1032B0009F92AF92BF92CF92DF92EF92FF920F93C5
:1032C0001F93CF93DF9300D01F92CDB7DEB70E943C
:1032D00062A110918907F12CEE24E39489E0C82EB5
:1032E0008EE1D82E812C912C540183942DED422E09
:1032F00023E0522E612C712C35E4232E3CEA332E30
:1033000011113EC080918C078823C1F08091440246
:10331000882359F081E090918C07911180E003E0BF
:1033200023E042E35EE16F2D8BDF1F5FF394B4E097
:10333000FB12E6CF88E080938A070BC08091C0051E
:10334000882321F31092C00566DF80918B078823C4
:10335000E9F20F900F900F900F90DF91CF911F9196
:103360000F91FF90EF90DF90CF90BF90AF909F9024
:103370008F907F906F905F904F903F902F90089527
:10338000113009F076C080918C078130B1F08091C6
:103390004402882351F201E080918C07813009F0CA
:1033A00000E08FEB97E00E94CDAA9C0146E25EE12F
:1033B0006F2D802F0E9448B5B8CF8091C00588231B
:1033C00031F31092C005109391071092BC05109232
:1033D000BD051092BE051092BF05B2DE83E080935A
:1033E0004402ACE2BEE1B0938307A09382078FEB67
:1033F00097E0909381078093800710927C0710924A
:103400007D0710927E0710927F078EED93E0A0E07B
:10341000B0E08093780790937907A0937A07B093F0
:103420007B072AE037ED43E25CE36091BF077091D0
:10343000C0078091C1079091C2070E940FCC0E94E3
:1034400009D160938D0770938E0780938F079093B7
:10345000900730923D0220923C0210928607109213
:1034600085071092840780918B07882309F48FCFFA
:1034700070CF123009F0D2C180918C07823099F060
:1034800080914402882309F450CF01E080918C0799
:10349000823009F000E083EC97E00E94CDAA9C0105
:1034A00042E15EE185CF8091C005882349F3109207
:1034B000C005E09291071092BC051092BD051092D4
:1034C000BE051092BF053CDE93E090934402ACE150
:1034D000BEE1B0938307A093820783EC97E09093BB
:1034E00081078093800780927C0790927D07A0924D
:1034F0007E07B0927F0740927807509279076092DA
:103500007A0770927B072AE037ED43E25CE3609133
:10351000C3077091C4078091C5079091C6070E94A8
:103520000FCC20E030E040E85FE30E94BFCF0E9474
:1035300009D160938D0770938E0780938F079093C6
:10354000900730923D0220923C0210928607109222
:1035500085071092840780918B07882309F490CF08
:10356000F8CE80918C07833099F0809144028823B3
:1035700009F4DBCE01E080918C07833009F000E094
:103580008BEB97E00E94CDAA9C0140E05EE110CF5A
:103590008091C005882349F31092C005E0929107FD
:1035A0001092BC051092BD051092BE051092BF0589
:1035B000C7DD10934402D0928307C0928207ABEB21
:1035C000B7E0B0938107A093800780927C07909228
:1035D0007D07A0927E07B0927F07409278075092B5
:1035E000790760927A0770927B072AE037ED43E211
:1035F0005CE36091BB077091BC078091BD0790911F
:10360000BE070E940FCC20E030E040E85FE30E945C
:10361000BFCF0E9409D160938D0770938E0780936E
:103620008F079093900730923D0220923C021092B7
:103630008607109285071092840780918B07882354
:1036400009F493CF86CE80918C07843009F1809164
:103650004402882309F469CE01E080918C0784300C
:1036600009F000E06091A1057091A2058091A30589
:103670009091A4050E94AECB69837A838B839C834F
:10368000CE0101960E94CDAA9C0142EF5DE190CE51
:103690008091C0058823D9F21092C005E09291076D
:1036A0001092BC051092BD051092BE051092BF0588
:1036B00024E630E040E050E061EA75E089EF9DE10A
:1036C0000E94DCA380918B07882309F242CE80916F
:1036D0008C07853009F180914402882309F425CEB6
:1036E00001E080918C07853009F000E06091A5052C
:1036F0007091A6058091A7059091A8050E94AECB78
:1037000069837A838B839C83CE0101960E94CDAA24
:103710009C0144EE5DE14CCE8091C0058823D9F236
:103720001092C005E09291071092BC051092BD0561
:103730001092BE051092BF0524E630E040E050E054
:1037400065EA75E08BEE9DE10E94DCA380918B071A
:10375000882309F2FECD80918C07863009F1809193
:103760004402882309F4E1CD01E080918C07863082
:1037700009F000E06091A9057091AA058091AB0560
:103780009091AC050E94AECB69837A838B839C8336
:10379000CE0101960E94CDAA9C0146ED5DE108CEC6
:1037A0008091C0058823D9F21092C005E09291075C
:1037B0001092BC051092BD051092BE051092BF0577
:1037C0002AE030E040E050E069EA75E08DED9DE1EF
:1037D0000E94DCA380918B07882309F2BACD8091E7
:1037E000C005882371F11092C005E09291071092F4
:1037F000BC051092BD051092BE051092BF0524E6CF
:1038000030E040E050E06DEA75E08FEC9DE10E9411
:10381000DCA380918B078823A1F09BCD133009F4A2
:10382000A0CE143009F40FCF153009F450CF163064
:1038300009F491CF173009F078CD80918C0787304B
:1038400071F280914402882309F46FCD01E08091E8
:103850008C07873009F000E06091AD057091AE05EE
:103860008091AF059091B0050E94AECB69837A83B9
:103870008B839C83CE0101960E94CDAA9C0148ECCB
:103880005DE196CD3F924F925F926F927F928F92C1
:103890009F92AF92BF92CF92DF92EF92FF920F93DF
:1038A0001F93CF93DF930E9462A1C0918907D0E05C
:1038B0005524539463E0462E77EE372EE9E8CE2E5A
:1038C000EDE1DE2EF7E9AF2EFDE1BF2EA5EA8A2E4F
:1038D000ADE19A2EB3EB6B2EBDE17B2EC11138C04A
:1038E00080918C078823B9F080914402882359F095
:1038F00081E090918C07911180E003E023E041EC9E
:103900005DE16D2F9DDCCF5FDF5FD43039F787E05D
:1039100080938A070BC08091C005882329F31092F9
:10392000C00579DC80918B078823F1F2DF91CF917C
:103930001F910F91FF90EF90DF90CF90BF90AF90CD
:103940009F908F907F906F905F904F903F900895E1
:10395000C13009F04AC080918C07813009F1809113
:103960004402882381F24F923F921F925F9287EC2C
:1039700097E09F938F937F926F92DF9381E0909176
:103980008C07913009F080E08F930E9493B58DB73A
:103990009EB70A960FB6F8949EBF0FBE8DBFB3CFE9
:1039A0008091C0058823D9F21092C005C093910779
:1039B0001092BC051092BD051092BE051092BF0575
:1039C000E12C10ECF12E09E714E420E030E040E8AF
:1039D0005FE367EC77E08AEB9DE10E9416A280919D
:1039E0008B07882309F4BBCFA1CFC23009F050C1A7
:1039F00080918C07823011F180914402882309F470
:103A000082CF4F923F921F925F928BEC97E09F93F1
:103A10008F939F928F92DF9381E090918C079230E9
:103A200009F080E08F930E9493B58DB79EB70A96F8
:103A30000FB6F8949EBF0FBE8DBF65CF8091C005B5
:103A40008823D1F21092C005509291071092BC05C4
:103A50001092BD051092BE051092BF05E12C10EC2E
:103A6000F12E09E714E420E030E040E85FE36BEC7E
:103A700077E08CEA9DE10E9416A280918B07882353
:103A800009F4BACF53CF80918C07833011F1809124
:103A90004402882309F437CF4F923F921F925F92DE
:103AA0008FEC97E09F938F93BF92AF92DF9381E06B
:103AB00090918C07933009F080E08F930E9493B52A
:103AC0008DB79EB70A960FB6F8949EBF0FBE8DBFF6
:103AD0001ACF8091C0058823D1F21092C005509270
:103AE00091071092BC051092BD051092BE05109270
:103AF000BF05E12C10ECF12E09E714E420E030E0E2
:103B000040E85FE36FEC77E08EE99DE10E9416A24A
:103B100080918B07882309F4BACF08CF80918C0756
:103B2000843011F180914402882309F4ECCE4F9245
:103B30003F921F925F9283ED97E09F938F93DF9266
:103B4000CF92DF9381E090918C07943009F080E070
:103B50008F930E9493B58DB79EB70A960FB6F894CF
:103B60009EBF0FBE8DBFCFCE8091C0058823D1F2FE
:103B70001092C005509291071092BC051092BD059D
:103B80001092BE051092BF05E12C10ECF12E09E752
:103B900014E420E030E040E85FE363ED77E080E9A3
:103BA0009DE10E9416A280918B07882309F4BACF69
:103BB000BDCE80918C07853021F18091440288230D
:103BC00009F4A1CE4F923F921F921F9283EF97E08C
:103BD0009F938F938FE79DE19F938F93DF9381E076
:103BE00090918C07953009F080E08F930E9493B5F7
:103BF0008DB79EB70A960FB6F8949EBF0FBE8DBFC5
:103C000082CE8091C0058823C1F21092C0055092E7
:103C100091071092BC051092BD051092BE0510923E
:103C2000BF05E12C10ECF12E09E714E420E030E0B0
:103C3000A90163EF77E084E89DE10E9416A28091DC
:103C40008B07882309F4B9CF71CE8091C0058823F2
:103C500079F11092C005509291071092BC05109214
:103C6000BD051092BE051092BF05E12C10ECF12E9F
:103C700009E714E420E030E0A9016FEE77E085E782
:103C80009DE10E9416A280918B07882389F04ECE79
:103C9000C33009F4F8CEC43009F440CFC53009F47C
:103CA00088CFC63009F02FCE80918C07863069F21C
:103CB00080914402882309F426CE4F923F921F92AE
:103CC0001F928FEE97E09F938F938BE69DE19F93DA
:103CD0008F93DF9381E090918C07963009F080E01C
:103CE0008F930E9493B58DB79EB70A960FB6F8943E
:103CF0009EBF0FBE8DBF07CE0F93CF93DF930E9461
:103D000062A1D0918907C0E0D1112AC080918C07AF
:103D10008823B9F080914402882359F081E0909182
:103D20008C07911180E003E023E04EEE5BE16C2F05
:103D300087DADF5FCF5FC43039F785E080938A0789
:103D40000BC08091C005882329F31092C00563DA67
:103D500080918B078823F1F2DF91CF910F91089525
:103D6000D13011F580918C07813079F08091440237
:103D70008823F9F281E090918C07913009F080E07E
:103D80000EE32EE347EE5BE1D2CF8091C00588239E
:103D900069F31092C00589E990E20E9400B7809112
:103DA0008B07882319F3D8CFD23009F055C0809102
:103DB0008C07823081F080914402882309F4B9CFC6
:103DC00081E090918C07923009F080E00EE32EE3C1
:103DD00040EE5BE1ACCF8091C005882361F3109287
:103DE000C0058DE990E20E9400B780918B0788237F
:103DF00011F3B2CF80918C07833081F0809144021F
:103E0000882309F496CF81E090918C07933009F0D4
:103E100080E00EE32EE349ED5BE189CF8091C005A0
:103E2000882361F31092C00581EA90E20E9400B7F6
:103E300080918B07882311F38FCF8091C005882351
:103E4000A1F01092C00585EA90E20E9400B780912F
:103E50008B07882351F080CFD33061F2D43009F042
:103E600068CF80918C07843041F38091440288238D
:103E700009F45FCF81E090918C07943009F080E0E5
:103E80000EE32EE340ED5BE152CF0F931F93CF93F0
:103E9000DF93182F70937F0560937E050E9462A1C7
:103EA000D0918907C0E081E0113009F459C048F190
:103EB000123009F47EC0D111A3C08823D9F08091BB
:103EC0008C071816BCF040918D0750918E076091B9
:103ED0008F07709190074F5F5F4F6F4F7F4F4093F9
:103EE0008D0750938E0760938F07709390078F5FB5
:103EF00080938C0780914402882341F162EB7BE13F
:103F000054C0D1117DC08823D9F080918C07181638
:103F1000BCF040918D0750918E0760918F07709192
:103F200090074F5F5F4F6F4F7F4F40938D075093C8
:103F30008E0760938F07709390078F5F80938C0735
:103F40008091440269EC7BE181112FC0DF5F80E04A
:103F5000CF5FC43009F0A8CF85E080938A0773C093
:103F6000D1114EC08823D9F080918C071816BCF06F
:103F700040918D0750918E0760918F077091900747
:103F80004F5F5F4F6F4F7F4F40938D0750938E076A
:103F900060938F07709390078F5F80938C07809159
:103FA000440262EC7BE1882389F28C2F0E94C1B429
:103FB000CDCFD11125C08823D9F080918C07181658
:103FC000BCF040918D0750918E0760918F077091E2
:103FD00090074F5F5F4F6F4F7F4F40938D07509318
:103FE0008E0760938F07709390078F5F80938C0785
:103FF000809144026BEB7BE1882309F4A7CFD5CFF6
:10400000D13031F580918C07813091F0809144025C
:10401000882309F49BCF81E090918C07913009F0BF
:1040200080E003E023E048EA5BE16C2F09D98ECF02
:104030008091C005882351F31092C005ECD880917F
:104040008B07882319F3DF91CF911F910F9108956A
:10405000D23009F055C080918C07823081F0809178
:104060004402882309F472CF81E090918C0792304A
:1040700009F080E00EE32EE34EE95BE1D6CF8091BC
:10408000C005882361F31092C00586EF98E10E9475
:1040900000B780918B07882311F3D5CF80918C07CF
:1040A000833081F080914402882309F44FCF81E06E
:1040B00090918C07933009F080E00EE32EE345E900
:1040C0005BE1B3CF8091C005882361F31092C005F6
:1040D0008BEF98E10E9400B780918B07882311F342
:1040E000B2CF8091C0058823A1F01092C00580E076
:1040F00099E10E9400B780918B07882351F0A3CFEC
:10410000D33061F2D43009F021CF80918C07843014
:1041100041F380914402882309F418CF81E0909103
:104120008C07943009F080E00EE32EE34AE85BE16F
:104130007CCF63EE75E280E0A8CE6FED75E281E0A2
:10414000A4CE6BED75E282E0A0CE65E574E283E07B
:104150009CCE0F93CF93DF930E9462A1D0918907E9
:10416000C0E0D11129C080918C078823B1F08091E3
:104170004402882359F081E090918C07911180E0EE
:1041800003E023E047EC5AE16C2F5AD8DF5FCF5FA2
:10419000C43039F7C0938A070BC08091C0058823CB
:1041A00031F31092C00537D880918B078823F9F23C
:1041B000DF91CF910F910895D13061F580918C07F7
:1041C000813079F080914402882301F381E090915D
:1041D0008C07913009F080E000E22EE34BEB5AE1CE
:1041E000D3CF8091C005882369F31092C005409118
:1041F0009D0550919E056091950570919605809161
:10420000990590919A050E9447B180918B07882368
:10421000C9F2CECFD23009F042C080918C078230F3
:1042200081F080914402882309F4B0CF81E090911D
:104230008C07923009F080E000E22EE34BE95AE16E
:10424000A3CF8091C005882361F31092C0054091EF
:104250009D0550919E056FEF7FEF8091990590919C
:104260009A050E9447B180918B078823D1F2A0CF95
:104270008091C0058823D1F01092C00540919D0522
:1042800050919E05609195057091960590E080E0B3
:104290000E9447B180918B07882341F089CFD330AA
:1042A00009F074CF80918C07833011F38091440220
:1042B000882309F46BCF81E090918C07933009F04B
:1042C00080E000E22EE34BEA5AE15ECF0F93CF93FA
:1042D000DF930E9462A1D0918907C0E0D1112BC069
:1042E00080918C078823B9F080914402882361F083
:1042F00081E090918C07911180E003E023E04BEF87
:104300005AE16C2F0E942019DF5FCF5FC43031F774
:10431000C0938A070CC08091C005882329F31092AE
:10432000C0050E940B1980918B078823E9F2DF9169
:10433000CF910F910895D13061F580918C07813034
:1043400079F0809144028823F9F281E090918C0702
:10435000913009F080E000E22EE34FEE5AE1D1CF38
:104360008091C005882369F31092C00540919F0594
:104370005091A005609197057091980580919B05DB
:1043800090919C050E9447B180918B078823C9F2C8
:10439000CECFD23009F042C080918C07823081F0BC
:1043A00080914402882309F4AFCF81E090918C077B
:1043B000923009F080E000E22EE34FEC5AE1A1CF09
:1043C0008091C005882361F31092C00540919F053C
:1043D0005091A0056FEF7FEF80919B0590919C0518
:1043E0000E9447B180918B078823D1F2A0CF8091A2
:1043F000C0058823D1F01092C00540919F055091CF
:10440000A005609197057091980590E080E00E946A
:1044100047B180918B07882341F089CFD33009F0D1
:1044200073CF80918C07833011F3809144028823ED
:1044300009F46ACF81E090918C07933009F080E015
:1044400000E22EE34FED5AE15CCF2F923F924F9264
:104450005F926F927F928F929F92AF92BF92CF9214
:10446000DF92EF92FF920F931F93CF93DF930E94FF
:1044700062A1C0918907D0E083E0482E97EE392EE3
:104480002AE0222E36E5632E3AE1732E552453940A
:1044900040E6E42E4AE1F42E54E7C52E5AE1D52E2B
:1044A0006CE7A62E6AE1B62E7AE8872E7AE1972E7F
:1044B000C1113BC080918C078823C1F080914402D8
:1044C000882361F081E090918C07911180E003E0F6
:1044D00023E046E95AE16D2F0E942019CF5FDF5F8C
:1044E000D43031F786E080938A070CC08091C005F4
:1044F000882321F31092C0050E940B1980918B072D
:104500008823E1F2DF91CF911F910F91FF90EF90FF
:10451000DF90CF90BF90AF909F908F907F906F90E3
:104520005F904F903F902F900895C130E1F58091BA
:104530008C07813009F180914402882379F24F92EF
:104540003F921F922F9288E192E09F938F939F92C8
:104550008F92DF9381E090918C07913009F080E099
:104560008F930E9481B58DB79EB70A960FB6F894C7
:104570009EBF0FBE8DBFB2CF8091C0058823D9F2F8
:104580001092C00510E000E027EE33E04AE050E072
:1045900068E172E080E99AE10E94B5A180918B0701
:1045A000882349F2AFCFC23009F0FAC080918C075E
:1045B000823039F180914402882309F48FCF8EE054
:1045C00096E19F938F931F9290EF9F931F921F925C
:1045D0008AE09FE09F938F93BF92AF92DF9381E039
:1045E00090918C07923009F080E08F930E9481B502
:1045F0008DB79EB70C960FB6F8949EBF0FBE8DBFB9
:104600006DCF8091C0058823A9F21092C005509209
:1046100091071092BC051092BD051092BE05109234
:10462000BF050EE016E120EF30E050E040E06AE028
:104630007FE083E89AE10E94B5A180918B078823EF
:1046400009F4B8CF5FCF80918C07833039F1809126
:104650004402882309F442CF85EF9AE29F938F9317
:104660001F9299E69F931F921F9287E897E09F936E
:104670008F93DF92CF92DF9381E090918C079330FC
:1046800009F080E08F930E9481B58DB79EB70C969C
:104690000FB6F8949EBF0FBE8DBF20CF8091C0058E
:1046A0008823A9F21092C005509291071092BC0580
:1046B0001092BD051092BE051092BF0505EF1AE2DB
:1046C00029E630E050E040E067E877E088E79AE1EB
:1046D0000E94B5A180918B07882309F4B8CF12CF2F
:1046E00080918C07843019F180914402882309F469
:1046F000F5CE1F929FEF9F931F921F9287EF97E037
:104700009F938F93FF92EF92DF9381E090918C07BC
:10471000943009F080E08F930E9481B58DB79EB7E9
:104720000A960FB6F8949EBF0FBE8DBFD7CE80916C
:10473000C0058823C9F21092C005509291071092CB
:10474000BC051092BD051092BE051092BF0510E089
:1047500000E02FEF30E050E040E067EF77E08AE6DE
:104760009AE10E94B5A180918B07882309F4BCCF00
:10477000C9CE8091C005882301F11092C00504E8DC
:1047800012E127EE33E04AE050E066E172E08BE5AB
:104790009AE10E94B5A180918B07882371F0B2CE77
:1047A000C33009F450CFC43009F49ACFC53009F0B2
:1047B00095CE80918C078530E1F280914402882368
:1047C00009F48CCE84E892E19F938F934F923F92AD
:1047D0001F922F9286E192E09F938F937F926F9228
:1047E000DF9381E090918C07953009F080E08F9302
:1047F0000E9481B58DB79EB70C960FB6F8949EBFF8
:104800000FBE8DBF6BCECF93DF93EC01FE01849181
:10481000882321F00E9482A52196F8CFDF91CF91C5
:104820000895CF93DF93EC018991882319F00E94BA
:1048300082A5FACFDF91CF9108950F931F93CF9365
:10484000DF93EC018B0161E081E00E9437A5CE018E
:104850000E9454A50115110519F16AE380E19FE05A
:104860000E944FA5CE010E94B3B4EC01C8010E9482
:104870003AB52196C80FD91F61E062970CF062E04B
:1048800092E1981B892F0E9437A560E280E19FE0AA
:104890000E944FA5C801DF91CF911F910F91C1CF09
:1048A000DF91CF911F910F9108958091C0051092D3
:1048B000C005882321F01092BB050C940B19609160
:1048C0008D0770918E0780918F07909190076115E9
:1048D00071058105910561F10E94B0CB20917A05A7
:1048E00030917B0540917C0550917D050E940FCC55
:1048F0002091E4053091E5054091E6055091E705EA
:104900000E94C0CF6093E4057093E5058093E605AF
:104910009093E70583E00E94101681E080934402A3
:1049200010928D0710928E0710928F0710929007A9
:1049300080914402882341F084EE95E00E9405AD09
:10494000BC0181E89BE179CF08953F924F925F923D
:104950006F927F928F929F92AF92BF92CF92DF928F
:10496000EF92FF920F931F93CF93DF9300D000D06D
:1049700000D01F92CDB7DEB79A878987362E8091F7
:10498000C0051092C0058823E1F01092BB050E947B
:104990000B192A960FB6F894DEBF0FBECDBFDF917C
:1049A000CF911F910F91FF90EF90DF90CF90BF902C
:1049B000AF909F908F907F906F905F904F903F90BF
:1049C000089580918D0790918E07A0918F07B091E7
:1049D00090078D839E83AF83B887892B8A2B8B2B7F
:1049E00009F454C094E0699F80011124F801E85251
:1049F000FA4F40805180628073808091260281113D
:104A000083C020E030E04AE754E4C301B2010E94D1
:104A1000BFCF4B015C0120E030E04AE754E4C30122
:104A2000B2010E94C0CF6B017C016D817E818F81BC
:104A300098850E94B0CB20917A0530917B054091FA
:104A40007C0550917D050E940FCCA30192010E942C
:104A5000C0CF2B013C018D819E81AF81B885B7FF0E
:104A600094C0A5019401C301B2010E94AACB87FDA5
:104A700084C0F801E852FA4F408251826282738208
:104A8000832D0E94101681E08093440210928D07BE
:104A900010928E0710928F07109290078091440217
:104AA000882309F476CFA4E03A9EC0011124FC01CA
:104AB000E852FA4F8E599A4FDC012D913D914D915C
:104AC0005C9160817181828193810E94C0CF6983F2
:104AD0007A838B839C832DEC3CEC4CEC5DE3609102
:104AE0007A0570917B0580917C0590917D050E94EF
:104AF000E6D187FD5BC0CE0101960E9405ADBC01E9
:104B000089859A859ADE45CFA1E06A17A1F0B2E0C7
:104B10006B1711F180906E0590906F05A090700555
:104B2000B0907105C0901A02D0901B02E0901C0258
:104B3000F0901D027ACF8090720590907305A0903E
:104B40007405B0907505C0901E02D0901F02E090D1
:104B50002002F090210269CF809076059090770531
:104B6000A0907805B0907905C0902202D0902302E1
:104B7000E0902402F090250258CFF801E852FA4F55
:104B800080829182A282B3827BCFA7019601C3016A
:104B9000B2010E94E6D118160CF06BCFF801E85272
:104BA000FA4FC082D182E282F3826ACFCE010196AF
:104BB0000E9487A2A4CF62E08AE79BE1C6CE61E0B3
:104BC00083E79BE1C2CE60E08CE69BE1BECE64E071
:104BD00084E10E94EBA50E946EB10C9448A54F920F
:104BE0005F926F927F928F929F92AF92BF92CF927D
:104BF000DF92EF92FF920F931F93CF93DF9300D03A
:104C000000D000D01F92CDB7DEB7109291078091EF
:104C1000C0051092C0058823F9F0D9DF40E050E0CC
:104C2000BA0181EE9BE20E94C0182A960FB6F89452
:104C3000DEBF0FBECDBFDF91CF911F910F91FF90CF
:104C4000EF90DF90CF90BF90AF909F908F907F902C
:104C50006F905F904F90089540918D0750918E070F
:104C600060918F077091900720911802309119027E
:104C7000C901840F951F243631050CF032C18536E9
:104C800091050CF035C1909319028093180210928F
:104C90008D0710928E0710928F07109290078091C7
:104CA000180290911902883EE3E09E0714F087EE07
:104CB00093E08A30910514F48AE090E09093190211
:104CC000809318020E9481A7009154051091550508
:104CD00020915605309157056B017C01C01AD10A0D
:104CE000E20AF30A9701860137FD11C020915305AE
:104CF0002095209353056A547C4F8F4F9F4F6093AC
:104D0000540570935505809356059093570500916F
:104D1000530560E080E00E9437A580900C0F9090D2
:104D20000D0FA0900E0FB0900F0F60910A0F7091B1
:104D30000B0F072E000C880B990B0E94B0CB6B0158
:104D40007C0182E00E9482A520E030E040E05FE349
:104D5000C501B4010E94C0CF0E9404D1CB010E94C2
:104D600082AF0E9450A16FE280E19FE00E944FA5B8
:104D700020E030E040E05FE3C701B6010E94C0CF11
:104D80000E9404D1CB010E9457AF0E9450A181E044
:104D90000E9482A560E280E19FE00E944FA520E092
:104DA00030E040E251E4C701B6010E94AACB87FF80
:104DB00005C060E280E19FE00E944FA560E08AE0CC
:104DC0000E9437A58090590590905A05A0905B05E8
:104DD000B0905C056091870770918807072E000CE2
:104DE000880B990B0E94B0CB6B017C0180E00E9484
:104DF00082A520E030E040E05FE3C501B4010E94FD
:104E0000C0CF0E9404D1CB010E9482AF0E9450A16A
:104E10006FE280E19FE00E944FA520E030E040E09B
:104E20005FE3C701B6010E94C0CF0E9404D1CB014D
:104E30000E9457AF0E9450A181E00E9482A560E2CB
:104E400080E19FE00E944FA520E030E040E251E485
:104E5000C701B6010E94AACB87FF05C060E280E1CE
:104E60009FE00E944FA561E080E00E9437A520915D
:104E7000620530916305409164055091650560912C
:104E8000D8057091D9058091DA059091DB050E94D3
:104E9000C0CF6B017C0120E030E0A9010E94AACBC9
:104EA00020E030E040E05FEB87FD04C020E030E030
:104EB00040E05FE3C701B6010E94C0CF0E9404D169
:104EC000CB010E94D8AED82E192F68E580E19FE073
:104ED0000E944FA50023F1F08D2D912F0E9450A12B
:104EE00033C02436310539F0843691050CF0CBCE31
:104EF00084E690E0C8CE473051056105710514F095
:104F00000697C1CE4A3F5F4F6F4F7F4F0CF0C7CE21
:104F10000696B9CE8091580580FD0FC0ED2CF12E7C
:104F2000F70161917F01662379F06F320CF06FE336
:104F300080E19FE00E944FA5F3CF8091CB0580FDDB
:104F4000CBCF8BEB99E15FDC60E280E19FE00E94D8
:104F50004FA52091660530916705409168055091F5
:104F600069056091DC057091DD058091DE05909109
:104F7000DF050E94C0CF6B017C0120E030E0A90179
:104F80000E94AACB20E030E040E05FEB87FD04C048
:104F900020E030E040E05FE3C701B6010E94C0CFEF
:104FA0000E9404D1CB010E94D8AED82E192F69E5FA
:104FB00080E19FE00E944FA5002329F08D2D912FC5
:104FC0000E9450A11AC08091580581FD0FC0ED2CA0
:104FD000F12EF70161917F01662379F06F320CF0B9
:104FE0006FE380E19FE00E944FA5F3CF8091CB0556
:104FF00081FDE4CF8BEB99E106DC61E08CE00E945F
:1050000037A520916A0530916B0540916C05509150
:105010006D056091E0057091E1058091E205909148
:10502000E3050E94C0CF6B017C0120E030E04AE73D
:1050300054E40E940FCC4B015C0120E030E0A90158
:10504000C701B6010E94AACB20E030E040EA50EC54
:1050500087FD04C020E030E040EA50E4C501B4011F
:105060000E94C0CF20E030E040E251E40E949CD09A
:105070000E9404D16B017C01F7FC18C160E2F0E1F1
:10508000CF16F7E2DF06E104F10484F0B60120E177
:1050900037E240E050E00E94ABD2CA01B9012AE0F9
:1050A00030E040E050E00E94ABD2605D6093710759
:1050B00060E228EEC21623E0D206E104F1048CF08F
:1050C000C701B60128EE33E040E050E00E94ABD2C9
:1050D000CA01B9012AE030E040E050E00E94ABD2C2
:1050E000605D60937207C701B60124E630E040E0DE
:1050F00050E00E94ABD29AE0892E912CA12CB12CC9
:10510000CA01B901A50194010E94ABD2605D609310
:105110007307C701B601A50194010E94ABD2162FF7
:10512000CA01B901A50194010E94ABD2112309F46F
:10513000C7C08EE280937407605D60937507105D51
:10514000109376076AE580E19FE00E944FA5002357
:1051500009F4C8C081E797E00E9450A162E080E0B6
:105160000E9437A586E00E9482A580911802909146
:1051700019020E9482AF0E9450A165E280E19FE087
:105180000E944FA562E087E00E9437A581EB99E17C
:105190003ADB80915D0F882309F4C2C08091291108
:1051A000882309F4BBC08091D3119091D411A091B0
:1051B000D511B091D6110097A105B10509F4AEC083
:1051C000BC01CD016D597F4F8F4F9F4F24E630E0DA
:1051D00040E050E00E9484CF6091D7117091D811C7
:1051E0008091D9119091DA110E9484CF822F90E0A2
:1051F0000E9482AF0E9450A165E280E19FE00E9480
:105200004FA50E9446162B013C0120E13EE040E004
:1052100050E00E9484CF69018CE3882E912CA12C50
:10522000B12CC301B201A50194010E9484CFCA012F
:10523000B901A50194010E9484CF8E010F5F1F4F19
:10524000F4E6CF16D10408F06FC07F936F93DF921E
:10525000CF9283EA99E19F938F931F930F930E94BC
:1052600043CB0FB6F894DEBF0FBECDBF95E062E032
:1052700083E1891B0E9437A587E00E9482A5C801AF
:10528000D0DA63E080E00E9437A58EEE9EE00E94B7
:105290003AB5182F0E946CA5143108F0C6CC60E214
:1052A00080E19FE00E944FA51F5FF6CFF094E0944D
:1052B000D094C094C11CD11CE11CF11C6DE2F6CE4F
:1052C000662351F08EE280937407605D60937507EA
:1052D00080E28093760736CF80E2809375078093D3
:1052E0007407F6CF8091580582FD10C001E717E0E2
:1052F000F80161918F01662309F430CF6F320CF011
:105300006FE380E19FE00E944FA5F2CF8091CB0533
:1053100082FD20CF84EB99E176DA20CF20E066CFC2
:105320008DEA99E170DA68CF7F936F93DF92CF9225
:105330008BE999E19F938F931F930F930E9443CB27
:105340000FB6F894DEBF0FBECDBF96E090CFEF92C0
:10535000FF920F931F93CF93DF9300D000D01F9243
:105360001F92CDB7DEB78E010F5F1F4FD80130E01F
:1053700020E0FB01E20FF31FE491ED932F5F3F4F1D
:1053800028303105B1F7877028E0829FC0011124D1
:1053900080640E9432A5780188E0E80EF11CF801D3
:1053A00061918F0180E19FE00E944FA5E016F10618
:1053B000B1F728960FB6F894DEBF0FBECDBFDF91D0
:1053C000CF911F910F91FF90EF9008958F929F9230
:1053D000AF92BF92CF92DF92EF92FF920F931F9303
:1053E000CF93DF93B0E4A0E06A2F70E0AB014B0FE6
:1053F000511D559547954A1711F0B41319C0E4EEA5
:10540000F8E165917491072E000C880B990B0E94AE
:10541000B0CBDF91CF911F910F91FF90EF90DF9074
:10542000CF90BF90AF909F908F900895B42FDECF14
:105430009A0121503109220F331F220F331FF90126
:10544000EA51F84EE590F490F901E651F84EC59115
:10545000D4918E159F0554F3A42FC817D9070CF4C7
:10546000C3CFF901E851F84E05911491F901E451C7
:10547000F84EC590D490BC016E197F09072E000C20
:10548000880B990B0E94B0CB4B015C01B601601BED
:10549000710B072E000C880B990B0E94B0CB9B015F
:1054A000AC01C501B4010E940FCC4B015C01BE01EF
:1054B0006E197F09072E000C880B990B0E94B0CB48
:1054C0009B01AC01C501B4010E949CD06B017C0121
:1054D000B801110F880B990B0E94B0CB9B01AC0156
:1054E000C701B6010E94C0CF94CF0F930FB70F939F
:1054F00000916E000B7F00936E0078940F930BB7B2
:105500000F930CB70F921F922F933F934F935F937C
:105510006F937F938F939F93AF93BF93EF93FF937B
:1055200011240E94ED4DFF91EF91BF91AF919F919A
:105530008F917F916F915F914F913F912F911F902C
:105540000F900CBF0F910BBF0F910460F894009364
:105550006E000F910FBF0F911895CF92DF92EF92CF
:10556000FF92C0905905D0905A05E0905B05F090ED
:105570005C05609187077091880766507109072E56
:10558000000C880B990B0E94B0CBA70196010E94DA
:10559000E6D118160CF520E030E040E050E4C701F9
:1055A000B6010E94C0CF0E9409D170930D0560938F
:1055B0000C050E9481A7605A75418F4F9F4F6093E1
:1055C00008057093090580930A0590930B05FF90D9
:1055D000EF90DF90CF900895109208051092090582
:1055E00010920A0510920B05F2CFB7CF8F929F92BF
:1055F000AF92BF92CF92DF92EF92FF920F931F93E1
:10560000CF93DF93B0E4A0E06A2F70E0AB014B0FC3
:10561000511D55954795A41711F0B41319C0E4EE28
:10562000F8E165917491072E000C880B990B0E948C
:10563000B0CBDF91CF911F910F91FF90EF90DF9052
:10564000CF90BF90AF909F908F900895B42FDECFF2
:105650009A0121503109220F331F220F331FF90104
:10566000EA51F84EE590F490F901E651F84EC591F3
:10567000D4918E159F0554F3A42FC817D9070CF4A5
:10568000C3CFF901E851F84E05911491F901E451A5
:10569000F84EC590D490BC016E197F09072E000CFE
:1056A000880B990B0E94B0CB4B015C01B601601BCB
:1056B000710B072E000C880B990B0E94B0CB9B013D
:1056C000AC01C501B4010E940FCC4B015C01BE01CD
:1056D0006E197F09072E000C880B990B0E94B0CB26
:1056E0009B01AC01C501B4010E949CD06B017C01FF
:1056F000B801110F880B990B0E94B0CB9B01AC0134
:10570000C701B6010E94C0CF94CF80911805909137
:1057100019055CDE60930C0F70930D0F80930E0FD4
:1057200090930F0F80911605909117055FDF60939E
:10573000590570935A0580935B0590935C05A89575
:1057400010921A05089510925D051092E4041092CB
:10575000E5041092E6041092E7041092E804109217
:10576000E9041092EA041092EB041092E004109203
:10577000E1041092E2041092E304089580915D0523
:105780008130E9F08230C9F40E9446166093E0044B
:105790007093E1048093E2049093E30481E08093AA
:1057A0005D050E9481A76093E4047093E5048093F3
:1057B000E6049093E70481E00895C5DFEFCF80E031
:1057C0000895FF920F931F93CF93DF930E9462A1DE
:1057D00010918907D12FC0E0FF24F394D11114C098
:1057E00080918C07882391F180914402882361F095
:1057F00081E090918C07911180E003E023E04AE47E
:105800005AE16C2F0E94201980912B0F90912C0F40
:10581000891B8F7071F580915D0F81112AC0D13085
:1058200009F095C080918C07813009F47FC0809188
:1058300044028823B9F181E090918C07913009F0FE
:1058400080E00EE32EE34DE35AE129C08091C005CC
:10585000882351F21092C0050E940B1980918B078A
:10586000882309F4C1CFDF91CF911F910F91FF9051
:105870000895D13009F06BC080918C07813009F414
:1058800044C080914402882369F081E090918C07A4
:10589000913009F080E00EE32EE345E45AE16C2FED
:1058A0000E94201980915E0F882309F407C180911E
:1058B0002911882309F4D9C090915D0F812F8C0F95
:1058C000992309F47DC0833009F0A0C080918C0732
:1058D000833009F462C080914402882369F081E03A
:1058E00090918C07933009F080E000E22EE349E2CA
:1058F0005AE16C2F0E94201985E0DF5FCF5FC43032
:1059000009F06CCF80938A07AECF8091C0058823C1
:1059100009F4B7CF1092C00585E292E20E9400B769
:1059200080918B07882309F4ACCF9DCF8091C0056F
:10593000882309F47CCF1092C00585E795E40E9486
:1059400000B780918B07882309F471CF8CCFD230B8
:1059500009F0A8CF80918C07823081F080914402B9
:10596000882309F49FCF81E090918C07923009F051
:1059700080E00EE32EE345E35AE191CF8091C0052C
:10598000882361F31092C00587E19FE60E9400B76B
:1059900080918B07882311F366CF8091C0058823FF
:1059A00009F499CF1092C00510925D0F0E947816ED
:1059B0000E94801880918B07882309F48CCF53CFE5
:1059C000833021F580918C07833081F080914402EF
:1059D000882309F491CF81E090918C07933009F0EE
:1059E00080E000E22EE341E15AE183CF8091C005DF
:1059F000882361F31092C005F0925D0FBFDE0E9414
:105A0000801880918B07882309F32DCF843009F00B
:105A100073CF80918C07843081F080914402882379
:105A200009F46ACF81E090918C07943009F080E00E
:105A300000E22EE346E05AE15CCF8091C005882366
:105A400061F31092C0051092C10510923B02F092D2
:105A5000600F6FEF8AEE99E10E94E7B10E9405198D
:105A600080918B078823C9F2FECED33011F084E0F9
:105A700044CF80918C07833091F080914402882339
:105A8000B1F381E090918C07933009F080E00EE350
:105A90002EE348EF59E16C2F0E942019E8CF809146
:105AA000C005882351F31092C00587EA9FEB0E943E
:105AB00000B780918B07882301F3D5CED330B9F698
:105AC00080918C07833079F080914402882379F2A9
:105AD00081E090918C07933009F080E00EE32EE393
